:100000000C9442000C945F000C945F000C945F0011
:100010000C945F000C945F000C945F000C945F00E4
:100020000C945F000C945F000C945F000C94D80556
:100030000C945F000C945F000C944F040C945F00D0
:100040000C945F000C945F000C944B070C945F00C1
:100050000C945F000C945F000C945F000C940906F4
:100060000C945F000C945F003F026C029402C1028A
:10007000E90216033E039E03AD03BA03C903D60388
:10008000E503F20311241FBECFEFD8E0DEBFCDBFE2
:1000900011E0A0E0B1E0E0E4FBE102C005900D92C8
:1000A000A630B107D9F721E0A6E0B1E001C01D926A
:1000B000AB36B207E1F70E9461000C949E0D0C94E0
:1000C000000068E070E080E090E00E9441064AE0B5
:1000D00060E58FE30E94B7070E9473010E94E50468
:1000E00081E00E9431040F2EF0E18F2EF7E29F2E67
:1000F000A12CB12CF02D0E94A008A50194010E9412
:10010000E10C69017A012CE4C216D10438F00E9496
:10011000700188231CF48FE70E944901C701B601D2
:10012000882799270E947B068AE00E945D068FEF50
:1001300093ED20E3815090402040E1F700C00000A3
:10014000DACF409A00C000C000C000C000C000006C
:10015000409800C000C000000895409A00C000C050
:10016000409800C000C000C000C000C000C008959A
:10017000EF92FF920F931F93CF93DF93F894C0E019
:10018000D0E06894EE24E7F8F12C082F10E09701F6
:100190000C2E02C0359527950A94E2F720233123CF
:1001A000232B19F40E94AD0002C00E94A1002196E9
:1001B000C830D10561F7DF91CF911F910F91FF906A
:1001C000EF90089540988BED90E00197F1F700C013
:1001D000000078940895CF92DF92EF92FF920F93F0
:1001E0001F93CF93DF93389ACDE4D1E00F2EFBE637
:1001F000CF2EF1E0DF2EF02D082F10E0EE24EA9450
:10020000F12C2981209FC001219F900D1124B7015D
:100210000E94CD0C862F0E94B8002881209FC0012B
:10022000219F900D1124B7010E94CD0C862F0E94B2
:10023000B8002A81209FC001219F900D1124B70191
:100240000E94CD0C862F0E94B8002396CC15DD05A8
:10025000C1F60E94E200DF91CF911F910F91FF90B4
:10026000EF90DF90CF900895CF93DF93389ACAE054
:10027000D0E080E00E94B80080E00E94B80080E0FA
:100280000E94B8002197A9F70E94E200DF91CF9168
:10029000089580930A01089590910A01282F30E073
:1002A000290F311D462F50E02417350720F4890F00
:1002B00080930A01089560930A01089590910A01BC
:1002C000292F30E0281B3109462F50E042175307F1
:1002D00024F4981B90930A01089560930A010895ED
:1002E00080910A01089584B5826084BD85B58560DA
:1002F00085BDEEE6F0E08081826080838DE987BD78
:1003000078940E9434010895282F30E0F901EE0F0F
:10031000FF1FE20FF31FE35BFE4F80818F3FB1F4BD
:10032000F901EE0FFF1FE20FF31FE35BFE4F918118
:100330009F3F09F473C0F901EE0FFF1FE20FF31F97
:10034000E35BFE4F8281811172C00895882361F0C2
:1003500077C0F901EE0FFF1FE20FF31FE35BFE4FC3
:100360004281411179C04AC0F901EE0FFF1FE20F2F
:10037000F31FE35BFE4F81818F3F59F4F901EE0FCC
:10038000FF1FE20FF31FE35BFE4F82818F3FC1F53A
:1003900002C08823B9F0F901EE0FFF1F2E0F3F1F97
:1003A000F901E35BFE4F82818F3F61F583E00895A1
:1003B000F901EE0FFF1FE20FF31FE35BFE4F818198
:1003C000811122C0F901EE0FFF1F2E0F3F1FF9010F
:1003D000E35BFE4F82818F3FC9F484E00895911161
:1003E00017C0F901EE0FFF1F2E0F3F1FF901E35B4E
:1003F000FE4F8281882371F085E0089581E00895A1
:1004000082E0089586E0089586E0089586E00895E4
:1004100086E0089586E0089586E00895F901EE0FDC
:10042000FF1FE20FF31FE35BFE4F918192CFF901B3
:10043000EE0FFF1FE20FF31FE35BFE4F9181CFCF63
:10044000F901EE0FFF1FE20FF31FE35BFE4F9181F7
:100450009F3F09F0ADCF7DCF8F3F09F2DDCFCF9326
:10046000DF93D82FC62F0E94840190E0873091053A
:1004700008F010C1FC01EC5CFF4F0C94000D8D2FB7
:1004800090E0FC01EE0FFF1FE80FF91FE35BFE4F4A
:1004900041812C2F30E0240F311D2F3F310509F011
:1004A0005CF4FC01EE0FFF1F8E0F9F1FFC01E35B4E
:1004B000FE4FC40FC183EEC0FC01EE0FFF1F8E0F75
:1004C0009F1FFC01E35BFE4F80818150841B8C1BCE
:1004D00080838FEF8183DEC08D2F90E0FC01EE0FD3
:1004E000FF1FE80FF91FE35BFE4F2081422F50E012
:1004F0004C1B51095AF0FC01EE0FFF1F8E0F9F1F7E
:10050000FC01E35BFE4F2C1B2083C4C0FC01EE0FFB
:10051000FF1F8E0F9F1FFC01E35BFE4F8281821B3A
:10052000C80FC2831082B6C08D2F90E0FC01EE0F81
:10053000FF1FE80FF91FE35BFE4F42812C2F30E0D5
:10054000240F311D2F3F310509F05CF4FC01EE0F43
:10055000FF1F8E0F9F1FFC01E35BFE4FC40FC28382
:1005600099C0FC01EE0FFF1F8E0F9F1FFC01E35B84
:10057000FE4F81818150841B8C1B81838FEF82838E
:1005800089C08D2F90E0FC01EE0FFF1FE80FF91FCF
:10059000E35BFE4F2181422F50E04C1B51095AF082
:1005A000FC01EE0FFF1F8E0F9F1FFC01E35BFE4F50
:1005B0002C1B21836FC0FC01EE0FFF1F8E0F9F1FAE
:1005C000FC01E35BFE4F8081821BC80FC083118258
:1005D00061C08D2F90E0FC01EE0FFF1FE80FF91FA7
:1005E000E35BFE4F40812C2F30E0240F311D2F3F65
:1005F000310509F05CF4FC01EE0FFF1F8E0F9F1F09
:10060000FC01E35BFE4FC40FC08344C0FC01EE0F4E
:10061000FF1F8E0F9F1FFC01E35BFE4F8281815005
:10062000841B8C1B82838FEF808334C08D2F90E0DE
:10063000FC01EE0FFF1FE80FF91FE35BFE4F228165
:10064000422F50E04C1B51095AF0FC01EE0FFF1FE6
:100650008E0F9F1FFC01E35BFE4F2C1B22831AC0F1
:10066000FC01EE0FFF1F8E0F9F1FFC01E35BFE4F8F
:100670008181821BC80FC18312820CC08D2F90E034
:10068000FC01EE0FFF1F8E0F9F1FFC01E35BFE4F6F
:100690008FEF8083DF91CF910895CF93DF93D82F91
:1006A000C0E06D2F8C2F0E942F02CF5FCA30C9F798
:1006B000DF91CF91089520E030E0F901FF27DF01BD
:1006C000AA0FBB1FEA0FFB1FE35BFE4F8083618312
:1006D00042832F5F3F4F2A30310579F708957F928B
:1006E0008F929F92AF92BF92CF92DF92EF92FF9242
:1006F0000F931F93CF93DF93982EEDE4F1E08FEFEC
:10070000808311821282EF01D12C88248A94E92CF3
:10071000F12C792C7094A880AB82C980CC82BA80ED
:10072000BD828D2D0E94840190E08730910508F0F4
:100730005AC0FC01E55CFF4F0C94000DC7018C0D05
:10074000911D8F3F910509F01CF4C90CCC824BC060
:10075000A70CAC18AB828C8246C08A2D90E08E1913
:100760009F091AF0A918AB823EC0B90CBA18BD8215
:100770001B8239C0C7018B0D911D8F3F910509F078
:100780001CF4B90CBD822FC0C70CCB18CC828D8253
:100790002AC08C2D90E08E199F091AF0C918CC82BE
:1007A00022C0A90CAC18AB821C821DC0C7018A0DE7
:1007B000911D8F3F910509F01CF4A90CAB8213C069
:1007C000B70CBA18BD828B820EC08B2D90E08E19AB
:1007D0009F091AF0B918BD8206C0C90CCB18CC828B
:1007E0001D8201C08B822396D394F9E0DF1293CF50
:1007F000DF91CF911F910F91FF90EF90DF90CF90FD
:10080000BF90AF909F908F907F9008950E946B054E
:10081000811108C08091090181FF04C091E08927FE
:10082000809309010E946B05882331F080910901B2
:1008300082608093090105C0809109018D7F8093BA
:1008400009018091090181FF0BC080FF05C06FEF96
:1008500081E00E944C0108956EE181E00E945E01FA
:10086000089580930801813061F018F0823079F0AA
:1008700008950E9434014FEF6FEF8FEF0E945B03EA
:1008800008950E94340180E40E946F0308950E943D
:10089000340140E060E08FEF0E945B0308951F92F7
:1008A0000F920FB60F9211242F933F934F935F93A4
:1008B0006F937F938F939F93AF93BF93EF93FF9328
:1008C0000E944F05882369F09091070181E08927F4
:1008D0008093070180930201109201018823B1F1F6
:1008E00004C080910701882331F10E947505882397
:1008F00071F080910801823019F41092080103C050
:100900008F5F80930801809108010E9431048091DB
:100910000801813019F0823029F007C081E00E947F
:100920004D0303C081E00E944D030E9406048091A4
:100930000A010E94EB0080910101811133C0809176
:100940000201882319F08130E1F02CC0809106016A
:10095000811104C080910A018093000181E080939D
:10096000060160E08AE00E945E0180910A01811127
:1009700003C091E0909301010E94EB000E943401BA
:1009800011C06FEF8AE00E944C01809100019091AC
:100990000A01981738F080930A0181E080930101E1
:1009A000109206010E948405FF91EF91BF91AF91D3
:1009B0009F918F917F916F915F914F913F912F9177
:1009C0000F900FBE0F901F901895E1E8F0E0808126
:1009D00089608083EFE6F0E080818260808380EA36
:1009E0009FE0909389008093880080B78A6080BFE1
:1009F000539A5B9A78940895CF92DF92EF92FF9288
:100A0000C0901601D0901701E0901801F0901901E4
:100A100060911A0170911B0180E090E00E94A90B87
:100A2000A70196010E94370B2DEC3CEC4CE45DE3F2
:100A30000E94600CA70196010E94380B6B017C019B
:100A40006093160170931701809318019093190118
:100A50008091100181110EC020E030E04FE254E49B
:100A6000C701B6010E945B0C181694F481E08093D4
:100A7000100102C0813061F420E030E04AEF53E41D
:100A8000C701B6010E94A40B882314F41092100130
:100A900080911001FF90EF90DF90CF9008958091AA
:100AA0000301813039F480911101813029F41092D1
:100AB0001101089580E0089580E008958091130168
:100AC000811107C081E090911201913019F080E00E
:100AD000089580E0089581E020911401309115017E
:100AE0002436310508F480E00895809103018130B7
:100AF00039F490911101923029F410921101089566
:100B000080E0089580E0089580910301813011F420
:100B100010921101089580911301809312010E9497
:100B2000FC0480931301813069F4809112018130BB
:100B300049F480911401909115010196909315014B
:100B4000809314010E945E05882301F180911401B5
:100B500090911501843F9140A8F480910F018A3F44
:100B600048F4809111018F5F8093110110920F0161
:100B70001092030110921501109214010E945E055B
:100B8000882321F0109215011092140180910F0119
:100B90008A3F30F081E08093030110920F010895A5
:100BA00090910301911103C08F5F80930F0108950D
:100BB0001F920F920FB60F9211242F933F934F93D2
:100BC0005F936F937F938F939F93AF93BF93EF93B5
:100BD000FF9380910E01873020F48F5F80930E0188
:100BE00004C00E948B0510920E01209A289820982C
:100BF000FF91EF91BF91AF919F918F917F916F91F5
:100C00005F914F913F912F910F900FBE0F901F90CA
:100C100018951F920F920FB60F9211242F933F93A6
:100C20008F939F9380910D01823090F48F5F80931A
:100C30000D01809184009091850020910B013091ED
:100C40000C01820F931F90930C0180930B0110C035
:100C500080910B0190910C019695879590931B01C3
:100C600080931A0110920C0110920B0110920D0149
:100C70009F918F913F912F910F900FBE0F901F90DA
:100C800018950F931F93072F182F292F33270093A1
:100C9000C5006093C400E0ECF0E080818260808356
:100CA000E1ECF0E088E180838081806880838EE0E1
:100CB0008093C2001F910F910895E0ECF0E09081C5
:100CC00095FFFDCF8093C60008950F931F93CF9398
:100CD000FC018081882359F08F01C0E00E945D06ED
:100CE000CF5FF801EC0FF11D80818111F7CFCF911B
:100CF0001F910F9108954F925F926F927F92AF92E2
:100D0000BF92CF92DF92EF92FF921F93CF93DF9328
:100D1000CDB7DEB72B970FB6F894DEBF0FBECDBFB1
:100D20002B013C01611571058105910521F480E3DA
:100D30000E945D0689C099235CF48DE20E945D06E5
:100D40007094609450944094411C511C611C711C1F
:100D5000FE013196CE010B9611928E179F07E1F797
:100D60004114510461047104B9F1A30192011AE024
:100D7000C12CD12C7601C394AA24A394B12CAC0E1F
:100D8000BD1EA10EB11CCA01B9012AE030E040E04D
:100D900050E00E94E10C605DD5016C93CC0CDD1C31
:100DA000EE1CFF1CD701C601880F991FAA1FBB1F8D
:100DB000880F991FAA1FBB1FC80ED91EEA1EFB1E53
:100DC0001150C301B201A70196010E94E10C211547
:100DD00031054105510581F68981811112C08F5F6E
:100DE000482F50E0E1E0F0E0EC0FFD1FE40FF51FAD
:100DF00090819923A1F36BE070E0681B710929F4DD
:100E00001FC040E050E06BE070E020E0822F90E0F7
:100E1000FC01E40FF51FA1E0B0E0AC0FBD1FEA0F2D
:100E2000FB1F3081A1E0B0E0AC0FBD1FA80FB91FC0
:100E30003C9310822F5F822F90E08617970730F344
:100E4000CE0101960E9465062B960FB6F894DEBF80
:100E50000FBECDBFDF91CF911F91FF90EF90DF903C
:100E6000CF90BF90AF907F906F905F904F9008951C
:100E7000E0ECF0E080818823ECF78091C6000895D3
:100E800080E090E0FC01E15DFE4F108201968D3123
:100E90009105C1F708951F920F920FB60F9211247A
:100EA0002F933F934F935F936F937F938F939F9372
:100EB000AF93BF93CF93EF93FF9310921D01C09117
:100EC0001C01C11102C00E9440070E9438078A30ED
:100ED00049F0EC2FF0E0E15DFE4F8083CF5FC093DF
:100EE0001C0105C010921C0181E080931D01FF913F
:100EF000EF91CF91BF91AF919F918F917F916F9122
:100F00005F914F913F912F910F900FBE0F901F90C7
:100F100018951F93CF93DF93182FD62FC42F8EE4ED
:100F20000E941909812F0E9419098D2F0E94190909
:100F30008C2F0E94190988E40E94190980911E01D2
:100F4000813039F48FE39CE90197F1F700C000008C
:100F50000AC0419A399A8FE39CE90197F1F700C0E2
:100F6000000041983998DF91CF911F9108950F9318
:100F70001F93CF93DF93D82F162F042F8093040154
:100F80000E94EF08C82F882309F18CEC0E941909F0
:100F90004D2F602F812F0E9489070E94EF088CEC53
:100FA0000E94190984EB0E9419090E943A09809352
:100FB0001E0142E068E28FE191E00E946609C82FBD
:100FC000813019F40E94EF0801C0C0E08C2FDF913E
:100FD000CF911F910F910895CF92DF92EF92FF92E0
:100FE000462F982F987F09F04BC090E1899FD00140
:100FF0001124862F82958F70A82B20E137E20E9462
:10100000150D6B017C01809104018F33A9F018F458
:101010008F3131F08EC08F35D9F08F3729F189C0EB
:10102000242F2F7030E0A8E8B3E10E94060D6C0D6C
:101030007D1D8E1D9F1D7FC0242F2F7030E0A4ECDE
:10104000B9E00E94060D6C0D7D1D8E1D9F1D73C0A5
:10105000242F2F7030E0A2EEB4E00E94060D6C0D3C
:101060007D1D8E1D9F1D67C0242F2F7030E0A1E7CE
:10107000B2E00E94060D6C0D7D1D8E1D9F1D5BC094
:101080004095A82FA09580E1A89FD0011124842F1E
:1010900082958F70A82B20E137E20E94150D6B011D
:1010A0007C01809104018F33B1F018F48F3131F05D
:1010B00038C08F35E9F08F3741F133C04F70A42F1E
:1010C000B0E0119628E833E10E94150DC60ED71E38
:1010D000E81EF91E26C04F70A42FB0E0119624EC34
:1010E00039E00E94150DC60ED71EE81EF91E19C064
:1010F0004F70A42FB0E0119622EE34E00E94150D3F
:10110000C60ED71EE81EF91E0CC04F70A42FB0E00B
:10111000119621E732E00E94150DC60ED71EE81E7B
:10112000F91E66277727CB016C197D098E099F0967
:1011300002C0C701B601FF90EF90DF90CF900895F5
:10114000CF930E94EF088CEC0E94190984E40E945E
:101150001909809104018F3399F018F48F3131F01F
:101160002CC08F35B9F08F37F9F027C02FEF86E903
:1011700094E0215080409040E1F700C000001DC085
:101180002FEF8DE299E0215080409040E1F700C0C0
:10119000000013C02FE78FE492E12150804090407F
:1011A000E1F700C0000009C02FEF8EE994E2215062
:1011B00080409040E1F700C000000E94EF088CECF6
:1011C0000E9419098EEB0E9419090E944B09C82F31
:1011D0000E944B096C2F0E94EC07CF910895F89460
:1011E000399A83E997E00197F1F700C00000399838
:1011F000E3E0F1E03197F1F700C0000086B1EFE8DD
:10120000F6E03197F1F700C0000078948695817080
:1012100091E089270895399A90E19A95F1F780FD38
:10122000399883E091E00197F1F700C00000399808
:1012300008950F931F93CF93DF93F894C0E0D0E00D
:10124000082F10E0C8010C2E02C0959587950A94CE
:10125000E2F781700E940B098AE08A95F1F700C0DD
:101260002196C830D10571F77894DF91CF911F9105
:101270000F910895399A8AE08A95F1F700C039985C
:1012800095E49A95F1F7000086B190EF9A95F1F701
:101290008695817008951F93CF93DF93F894C0E0F3
:1012A000D0E010E00E943A0990E00C2E02C0880FB6
:1012B000991F0A94E2F7182B2196C830D10591F7AF
:1012C0007894812FDF91CF911F9108952F923F92B3
:1012D0004F925F926F927F928F929F92AF92BF9246
:1012E000CF92DF92EF92FF920F931F93CF93DF93F2
:1012F000CDB7DEB729970FB6F894DEBF0FBECDBFCE
:10130000442309F485C14A836B839D838C830897AA
:10131000998788871982862F90E09F838E830E9409
:10132000EF08882309F47EC180EF0E941909E12C9F
:10133000F12CCE80DF800E943A09182F0E943A09D2
:10134000110F812B8130E9F01CF4882339F032C071
:10135000823021F1833009F45DC12CC021E030E0FE
:101360000E2C02C0220F331F0A94E2F7A60142237B
:10137000532381E04217530709F080E00E940B09D4
:1013800019C0C6010E2C02C0959587950A94E2F704
:1013900080FD42C180E00E940B090CC0C6010E2CEA
:1013A00002C0959587950A94E2F780FF37C181E0E6
:1013B0000E940B099FEFE91AF90AE8E0EE16F10422
:1013C00009F0B9CF9B81292E312C412C512C612C55
:1013D000712C43010E943A09182F0E943A09110FFB
:1013E000812B813009F491C01CF4882341F0D2C0D4
:1013F000823009F4B1C0833009F412C1CBC0F98145
:10140000FF2309F457C0E885F985208131814281A5
:10141000538164817581868197810E2D0E94370DDD
:10142000217030E040E050E060E070E080E090E06B
:10143000A0E00E945C0DB9F421E00E941C0D22295D
:101440003329442955296629772988299929222E63
:10145000332E442E552E662E772E882E992E81E01F
:101460000E940B0997C021E030E040E050E060E0CE
:1014700070E080E090E00E2D0E941C0D20953095CC
:1014800040955095609570958095909522213321D7
:10149000442155216621772188219921222E332E3E
:1014A000442E552E662E772E882E992E80E00E948F
:1014B0000B0970C021E030E040E050E060E070E0F7
:1014C00080E090E00E2D0E941C0DE22FE0953095FB
:1014D000409550956095272F209580959095E22115
:1014E00033214421552166212721782D7823892D08
:1014F00089232E2E332E442E552E662E722E872EA5
:10150000982E80E00E940B0945C021E030E040E0C9
:1015100050E060E070E080E090E00E2D0E941C0D35
:101520002095309540955095609570958095909553
:1015300022213321442155216621772188219921B7
:10154000222E332E442E552E662E772E882E992E3F
:1015500080E00E940B091EC021E030E040E050E036
:1015600060E070E080E090E00E2D0E941C0D2229CA
:101570003329442955296629772988299929222E32
:10158000332E442E552E662E772E882E992E81E0EE
:101590000E940B09FFEFEF1AFF0A80E4E816F1043E
:1015A00009F018CF47C0EC81FD8120823182428250
:1015B000538264827582868297821DC0E885F98590
:1015C000A080B180C280D380E480F580068117813D
:1015D000222D332D442D552D662D772D882D992DB7
:1015E0000E94530D41F020863186428653866486E0
:1015F000758686869786F981FF5FF9838885998548
:101600000896998788879A819F1389CE81E016C0B2
:1016100081E014C080E012C080E010C080E00EC005
:1016200080E00CC0212C312C412C512C612C712CD0
:10163000812C912CE981E111C1CFB5CF29960FB64C
:10164000F894DEBF0FBECDBFDF91CF911F910F91F8
:10165000FF90EF90DF90CF90BF90AF909F908F90D2
:101660007F906F905F904F903F902F9008955058CB
:10167000BB27AA270E944F0B0C94210C0E94130C2D
:1016800038F00E941A0C20F039F49F3F19F426F428
:101690000C94100C0EF4E095E7FB0C940A0CE92F67
:1016A0000E94320C58F3BA17620773078407950734
:1016B00020F079F4A6F50C94540C0EF4E0950B2E62
:1016C000BA2FA02D0B01B90190010C01CA01A00194
:1016D0001124FF27591B99F0593F50F4503E68F1EF
:1016E0001A16F040A22F232F342F4427585FF3CF30
:1016F000469537952795A795F0405395C9F77EF401
:101700001F16BA0B620B730B840BBAF09150A1F049
:10171000FF0FBB1F661F771F881FC2F70EC0BA0FCF
:10172000621F731F841F48F4879577956795B79557
:10173000F7959E3F08F0B0CF9395880F08F0992752
:10174000EE0F9795879508950E94E60B08F481E0C7
:101750000895E89409C097FB3EF4909580957095A4
:1017600061957F4F8F4F9F4F9923A9F0F92F96E9ED
:10177000BB279395F695879577956795B795F11162
:10178000F8CFFAF4BB0F11F460FF1BC06F5F7F4FFF
:101790008F4F9F4F16C0882311F096E911C0772311
:1017A00021F09EE8872F762F05C0662371F096E81A
:1017B000862F70E060E02AF09A95660F771F881FE9
:1017C000DAF7880F9695879597F90895990F00088D
:1017D000550FAA0BE0E8FEEF16161706E807F90703
:1017E000C0F012161306E407F50798F0621B730B9E
:1017F000840B950B39F40A2661F0232B242B252B1F
:1018000021F408950A2609F4A140A6958FEF811DC1
:10181000811D089597F99F6780E870E060E0089562
:101820009FEF80EC089500240A94161617061806F8
:101830000906089500240A941216130614060506D4
:101840000895092E0394000C11F4882352F0BB0F65
:1018500040F4BF2B11F460FF04C06F5F7F4F8F4FC8
:101860009F4F089557FD9058440F551F59F05F3F03
:1018700071F04795880F97FB991F61F09F3F79F0B2
:1018800087950895121613061406551FF2CF469534
:10189000F1DF08C0161617061806991FF1CF8695B6
:1018A0007105610508940895E894BB27662777279A
:1018B000CB0197F908950E94E60B08F48FEF089585
:1018C0000E94730C0C94210C0E94130C38F00E949F
:1018D0001A0C20F0952311F00C940A0C0C94100CA7
:1018E00011240C94550C0E94320C70F3959FC1F397
:1018F000950F50E0551F629FF001729FBB27F00DBE
:10190000B11D639FAA27F00DB11DAA1F649F662712
:10191000B00DA11D661F829F2227B00DA11D621F61
:10192000739FB00DA11D621F839FA00D611D221F1B
:10193000749F3327A00D611D231F849F600D211DFF
:10194000822F762F6A2F11249F5750409AF0F1F082
:1019500088234AF0EE0FFF1FBB1F661F771F881FEB
:1019600091505040A9F79E3F510580F00C940A0C0D
:101970000C94550C5F3FE4F3983ED4F3869577952D
:101980006795B795F795E7959F5FC1F7FE2B880F91
:10199000911D9695879597F9089597FB072E16F454
:1019A000009407D077FD09D00E94680D07FC05D090
:1019B0003EF4909581959F4F0895709561957F4F66
:1019C0000895052E97FB1EF400940E94F80C57FD15
:1019D00007D00E947C0D07FC03D04EF40C94F80C49
:1019E00050954095309521953F4F4F4F5F4F08954B
:1019F00090958095709561957F4F8F4F9F4F08957B
:101A0000EE0FFF1F0590F491E02D0994A29FB00105
:101A1000B39FC001A39F700D811D1124911DB29F22
:101A2000700D811D1124911D08950E94060DB7FFB0
:101A30000895821B930B08950F93083090F0982F10
:101A4000872F762F652F542F432F322F22270850B0
:101A5000F4CF220F331F441F551F661F771F881FA7
:101A6000991F0A95B2F70F91089597FB10F81694F5
:101A700000080F93083098F00850232F342F452F7B
:101A8000562F672F782F892F902DF4CF0594979597
:101A900087957795679557954795379527950A9533
:101AA000AAF70F9108952A153B054C055D056E05B3
:101AB0007F058007910708950024A7FD00942A1749
:101AC00030054005500560057005800590050895B6
:101AD000AA1BBB1B51E107C0AA1FBB1FA617B70754
:101AE00010F0A61BB70B881F991F5A95A9F7809570
:101AF0009095BC01CD010895A1E21A2EAA1BBB1B33
:101B0000FD010DC0AA1FBB1FEE1FFF1FA217B307C9
:101B1000E407F50720F0A21BB30BE40BF50B661FDF
:101B2000771F881F991F1A9469F7609570958095A3
:101B300090959B01AC01BD01CF010895F894FFCFB2
:061B4000FF0101017F001E
:00000001FF
